:030000000202EB0E
:0C02EB00787FE4F6D8FD75813F020332F5
:1004BE0020951212053E7FC87E0012052612037784
:0A04CE00E4F58780EB1203D380E60B
:10042F000100071300000000001BEF01FFFFFFFF9B
:10043F000100030100050100031D00210100080454
:10044F0001000003E700F801000804010000001399
:10045F00002101000402010008010004020200094A
:09046F0001000305000900000072
:04058000020800006D
:10047800E4F532F53374392533F58274043532F5F1
:1004880083E493FF1205880533E53370020532C310
:0A0498009406E5326480948040DB96
:0104A2002237
:0204A3008F3197
:1004A500E4F532E532C39531500E120590740A25F4
:0804B50032F8A607053280EBC6
:0104BD00221C
:1004D800120478E4F531E53190043F93FF12058862
:0904E8000531E531C3940640ED35
:0104F10022E8
:1004F200120478E4F531E53190046193FF12058826
:090502000531E531C3940740ED19
:01050B0022CD
:10050C00120478E4F531E53190044B93FF12058821
:09051C000531E531C3940B40EDFB
:0105250022B3
:10037700E4F52CF52D782E7C00FD7BFF7A0479754A
:10038700FE7F03120206752A00752B011204D87F1F
:100397000C1204A3E51370227F64FE1205261204D3
:1003A700F27F0C1204A312050C7F101204A3E513AD
:1003B700700575A080800375A040052BE52B7002A2
:0B03C700052AC39420E52A944E40C193
:0103D2002208
:10053E00759850E4F587758920758DFD758BFDD204
:04054E008ED2AF2278
:080588008F993099FDC2992200
:070590003098FDC298AF99FD
:010597002241
:0A056400EF1F70011E144E70F72205
:10052600AD07AC06ED1DAE0470011C4E60097F7D63
:080536007E0012056480ED2235
:10022C0018301C1020401C10181020101C101840E6
:10023C001C2020201C2018202080FF20301C10188F
:10024C002015201C202020264020202B202620207A
:10025C00203080FF20201C101810202026202B205E
:10026C0030202B4020201C101810202026202B2062
:10027C0030202B4020301C10182015201C20202052
:10028C00264020202B2026202020308020301C10BF
:10029C0020101C10202026202B2030202B40201535
:1002AC001F0520101C10202026202B2030202B4036
:1002BC0020301C10182015201C2020202640202027
:1002CC002B2026202020303020301C1018401C20E1
:0F02DC0020202640136018201540134018800082
:03058400013F0034
:03000B0002056E7D
:09056E00758DD8758BEF153F3235
:10055200EF75F003A4FFAEF0EF1F70011E144E7092
:01056200F7A1
:010563002275
:1003D300E4F52B53890F438901758DD8758BEF7520
:1003E300A882E52B90022C93F52A7009F52B7FE860
:1003F3007E03020526E52AB4FF0D052B7F647E00EC
:10040300120526C28E80DBAF2B052BEF90022C93B7
:10041300FDAF2B052BEF93F53FD28CE53F6009B27F
:0C04230095AF0512055280F3C28E80B622
:09057700D288D2A8D2AFD2B22280
:0300030002000EEA
:10000E00C0E0C0F0C083C082C0D075D000C000C0B8
:0D001E0001C002C003C004C005C006C00739
:10002B007538007F467E0012052630B20302011B95
:10003B007536037537E820B21CD3E5379400E536E7
:10004B00940040117F017E00120526E537153770AD
:10005B00E5153680E120B20302011B7536017537B9
:10006B00F430B21CD3E5379400E536940040117F91
:10007B00017E00120526E537153770E5153680E150
:10008B0075350075340075360075373C20B21CD3BE
:10009B00E5379400E536940040117F017E00120590
:1000AB0026E537153770E5153680E175360175375E
:1000BB00F430B227D3E5379400E5369400401C7F2B
:1000CB00017E001205260538E53715377002153607
:1000DB00E538D3941E40DAD2A8803574392535F82B
:1000EB00C000E6C313D000F6E538C394084009748A
:1000FB00392535F8E64480F67538000534E534C308
:10010B00940840820535E535C39404500302008EF4
:10011B00D007D006D005D004D003D002D001D00038
:0B012B00D0D0D082D083D0F0D0E032E2
:1002F7000204BEE493A3F8E493A34003F68001F25B
:1003070008DFF48029E493A3F85407240CC8C33307
:10031700C4540F4420C8834004F456800146F6DFD6
:10032700E4800B0102040810204080900580E47EE1
:10033700019360BCA3FF543F30E509541FFEE493CB
:10034700A360010ECF54C025E060A840B8E493A392
:10035700FAE493A3F8E493A3C8C582C8CAC583CABD
:10036700F0A3C8C582C8CAC583CADFE9DEE780BE75
:010587000073
:10013600E709F608DFFA8046E709F208DFFA803EAB
:1001460088828C83E709F0A3DFFA8032E309F60898
:10015600DFFA8078E309F208DFFA807088828C8300
:10016600E309F0A3DFFA806489828A83E0A3F608B4
:10017600DFFA805889828A83E0A3F208DFFA804C8E
:1001860080D280FA80C680D4806980F28033801065
:1001960080A680EA809A80A880DA80E280CA8033CE
:1001A60089828A83ECFAE493A3C8C582C8CCC58346
:1001B600CCF0A3C8C582C8CCC583CCDFE9DEE78016
:1001C6000D89828A83E493A3F608DFF9ECFAA9F095
:1001D600EDFB2289828A83ECFAE0A3C8C582C8CCEB
:1001E600C583CCF0A3C8C582C8CCC583CCDFEADE04
:1001F600E880DB89828A83E493A3F208DFF980CC66
:1002060088F0EF60010E4E60C388F0ED2402B4045E
:100216000050B9F582EB2402B4040050AF23234505
:06022600822390018673A3
:00000001FF
